{
  "_format": "hh-sol-artifact-1",
  "contractName": "AssetAgreement",
  "sourceName": "contracts/AssetAgreement.sol",
  "abi": [
    {
      "inputs": [
        {
          "internalType": "string",
          "name": "_name",
          "type": "string"
        },
        {
          "internalType": "string",
          "name": "_symbol",
          "type": "string"
        },
        {
          "internalType": "address",
          "name": "_owner",
          "type": "address"
        },
        {
          "internalType": "address",
          "name": "_market",
          "type": "address"
        }
      ],
      "stateMutability": "nonpayable",
      "type": "constructor"
    },
    {
      "inputs": [],
      "name": "ApprovalCallerNotOwnerNorApproved",
      "type": "error"
    },
    {
      "inputs": [],
      "name": "ApprovalQueryForNonexistentToken",
      "type": "error"
    },
    {
      "inputs": [],
      "name": "BalanceQueryForZeroAddress",
      "type": "error"
    },
    {
      "inputs": [],
      "name": "MintERC2309QuantityExceedsLimit",
      "type": "error"
    },
    {
      "inputs": [],
      "name": "MintToZeroAddress",
      "type": "error"
    },
    {
      "inputs": [],
      "name": "MintZeroQuantity",
      "type": "error"
    },
    {
      "inputs": [],
      "name": "OwnerQueryForNonexistentToken",
      "type": "error"
    },
    {
      "inputs": [],
      "name": "OwnershipNotInitializedForExtraData",
      "type": "error"
    },
    {
      "inputs": [],
      "name": "TransferCallerNotOwnerNorApproved",
      "type": "error"
    },
    {
      "inputs": [],
      "name": "TransferFromIncorrectOwner",
      "type": "error"
    },
    {
      "inputs": [],
      "name": "TransferToNonERC721ReceiverImplementer",
      "type": "error"
    },
    {
      "inputs": [],
      "name": "TransferToZeroAddress",
      "type": "error"
    },
    {
      "inputs": [],
      "name": "URIQueryForNonexistentToken",
      "type": "error"
    },
    {
      "anonymous": false,
      "inputs": [
        {
          "indexed": true,
          "internalType": "address",
          "name": "owner",
          "type": "address"
        },
        {
          "indexed": true,
          "internalType": "address",
          "name": "approved",
          "type": "address"
        },
        {
          "indexed": true,
          "internalType": "uint256",
          "name": "tokenId",
          "type": "uint256"
        }
      ],
      "name": "Approval",
      "type": "event"
    },
    {
      "anonymous": false,
      "inputs": [
        {
          "indexed": true,
          "internalType": "address",
          "name": "owner",
          "type": "address"
        },
        {
          "indexed": true,
          "internalType": "address",
          "name": "operator",
          "type": "address"
        },
        {
          "indexed": false,
          "internalType": "bool",
          "name": "approved",
          "type": "bool"
        }
      ],
      "name": "ApprovalForAll",
      "type": "event"
    },
    {
      "anonymous": false,
      "inputs": [
        {
          "indexed": true,
          "internalType": "uint256",
          "name": "fromTokenId",
          "type": "uint256"
        },
        {
          "indexed": false,
          "internalType": "uint256",
          "name": "toTokenId",
          "type": "uint256"
        },
        {
          "indexed": true,
          "internalType": "address",
          "name": "from",
          "type": "address"
        },
        {
          "indexed": true,
          "internalType": "address",
          "name": "to",
          "type": "address"
        }
      ],
      "name": "ConsecutiveTransfer",
      "type": "event"
    },
    {
      "anonymous": false,
      "inputs": [
        {
          "indexed": true,
          "internalType": "bytes32",
          "name": "role",
          "type": "bytes32"
        },
        {
          "indexed": true,
          "internalType": "bytes32",
          "name": "previousAdminRole",
          "type": "bytes32"
        },
        {
          "indexed": true,
          "internalType": "bytes32",
          "name": "newAdminRole",
          "type": "bytes32"
        }
      ],
      "name": "RoleAdminChanged",
      "type": "event"
    },
    {
      "anonymous": false,
      "inputs": [
        {
          "indexed": true,
          "internalType": "bytes32",
          "name": "role",
          "type": "bytes32"
        },
        {
          "indexed": true,
          "internalType": "address",
          "name": "account",
          "type": "address"
        },
        {
          "indexed": true,
          "internalType": "address",
          "name": "sender",
          "type": "address"
        }
      ],
      "name": "RoleGranted",
      "type": "event"
    },
    {
      "anonymous": false,
      "inputs": [
        {
          "indexed": true,
          "internalType": "bytes32",
          "name": "role",
          "type": "bytes32"
        },
        {
          "indexed": true,
          "internalType": "address",
          "name": "account",
          "type": "address"
        },
        {
          "indexed": true,
          "internalType": "address",
          "name": "sender",
          "type": "address"
        }
      ],
      "name": "RoleRevoked",
      "type": "event"
    },
    {
      "anonymous": false,
      "inputs": [
        {
          "indexed": true,
          "internalType": "address",
          "name": "from",
          "type": "address"
        },
        {
          "indexed": true,
          "internalType": "address",
          "name": "to",
          "type": "address"
        },
        {
          "indexed": true,
          "internalType": "uint256",
          "name": "tokenId",
          "type": "uint256"
        }
      ],
      "name": "Transfer",
      "type": "event"
    },
    {
      "inputs": [],
      "name": "DEFAULT_ADMIN_ROLE",
      "outputs": [
        {
          "internalType": "bytes32",
          "name": "",
          "type": "bytes32"
        }
      ],
      "stateMutability": "view",
      "type": "function"
    },
    {
      "inputs": [],
      "name": "MARKET_ROLE",
      "outputs": [
        {
          "internalType": "bytes32",
          "name": "",
          "type": "bytes32"
        }
      ],
      "stateMutability": "view",
      "type": "function"
    },
    {
      "inputs": [],
      "name": "OWNER_ROLE",
      "outputs": [
        {
          "internalType": "bytes32",
          "name": "",
          "type": "bytes32"
        }
      ],
      "stateMutability": "view",
      "type": "function"
    },
    {
      "inputs": [
        {
          "internalType": "address",
          "name": "to",
          "type": "address"
        },
        {
          "internalType": "uint256",
          "name": "tokenId",
          "type": "uint256"
        }
      ],
      "name": "approve",
      "outputs": [],
      "stateMutability": "payable",
      "type": "function"
    },
    {
      "inputs": [
        {
          "internalType": "address",
          "name": "owner",
          "type": "address"
        }
      ],
      "name": "balanceOf",
      "outputs": [
        {
          "internalType": "uint256",
          "name": "",
          "type": "uint256"
        }
      ],
      "stateMutability": "view",
      "type": "function"
    },
    {
      "inputs": [
        {
          "internalType": "uint256",
          "name": "tokenId",
          "type": "uint256"
        }
      ],
      "name": "getApproved",
      "outputs": [
        {
          "internalType": "address",
          "name": "",
          "type": "address"
        }
      ],
      "stateMutability": "view",
      "type": "function"
    },
    {
      "inputs": [],
      "name": "getMarketAddress",
      "outputs": [
        {
          "internalType": "address",
          "name": "",
          "type": "address"
        }
      ],
      "stateMutability": "view",
      "type": "function"
    },
    {
      "inputs": [],
      "name": "getOwner",
      "outputs": [
        {
          "internalType": "address",
          "name": "",
          "type": "address"
        }
      ],
      "stateMutability": "view",
      "type": "function"
    },
    {
      "inputs": [
        {
          "internalType": "bytes32",
          "name": "_hash",
          "type": "bytes32"
        }
      ],
      "name": "getOwnerOfAssetFromHash",
      "outputs": [
        {
          "internalType": "address",
          "name": "",
          "type": "address"
        },
        {
          "internalType": "uint256",
          "name": "",
          "type": "uint256"
        }
      ],
      "stateMutability": "view",
      "type": "function"
    },
    {
      "inputs": [],
      "name": "getOwnerRoyalty",
      "outputs": [
        {
          "internalType": "uint256",
          "name": "",
          "type": "uint256"
        }
      ],
      "stateMutability": "view",
      "type": "function"
    },
    {
      "inputs": [
        {
          "internalType": "bytes32",
          "name": "role",
          "type": "bytes32"
        }
      ],
      "name": "getRoleAdmin",
      "outputs": [
        {
          "internalType": "bytes32",
          "name": "",
          "type": "bytes32"
        }
      ],
      "stateMutability": "view",
      "type": "function"
    },
    {
      "inputs": [
        {
          "internalType": "bytes32",
          "name": "role",
          "type": "bytes32"
        },
        {
          "internalType": "address",
          "name": "account",
          "type": "address"
        }
      ],
      "name": "grantRole",
      "outputs": [],
      "stateMutability": "nonpayable",
      "type": "function"
    },
    {
      "inputs": [
        {
          "internalType": "bytes32",
          "name": "role",
          "type": "bytes32"
        },
        {
          "internalType": "address",
          "name": "account",
          "type": "address"
        }
      ],
      "name": "hasRole",
      "outputs": [
        {
          "internalType": "bool",
          "name": "",
          "type": "bool"
        }
      ],
      "stateMutability": "view",
      "type": "function"
    },
    {
      "inputs": [
        {
          "internalType": "address",
          "name": "owner",
          "type": "address"
        },
        {
          "internalType": "address",
          "name": "operator",
          "type": "address"
        }
      ],
      "name": "isApprovedForAll",
      "outputs": [
        {
          "internalType": "bool",
          "name": "",
          "type": "bool"
        }
      ],
      "stateMutability": "view",
      "type": "function"
    },
    {
      "inputs": [
        {
          "internalType": "uint256",
          "name": "_tokenId",
          "type": "uint256"
        }
      ],
      "name": "isForSale",
      "outputs": [
        {
          "internalType": "bool",
          "name": "",
          "type": "bool"
        }
      ],
      "stateMutability": "view",
      "type": "function"
    },
    {
      "inputs": [
        {
          "internalType": "uint256",
          "name": "_tokenId",
          "type": "uint256"
        }
      ],
      "name": "isResaleAllowed",
      "outputs": [
        {
          "internalType": "bool",
          "name": "",
          "type": "bool"
        }
      ],
      "stateMutability": "view",
      "type": "function"
    },
    {
      "inputs": [],
      "name": "market",
      "outputs": [
        {
          "internalType": "address",
          "name": "",
          "type": "address"
        }
      ],
      "stateMutability": "view",
      "type": "function"
    },
    {
      "inputs": [
        {
          "internalType": "uint256[]",
          "name": "_prices",
          "type": "uint256[]"
        },
        {
          "internalType": "bool[]",
          "name": "_resaleAllowed",
          "type": "bool[]"
        }
      ],
      "name": "mint",
      "outputs": [],
      "stateMutability": "nonpayable",
      "type": "function"
    },
    {
      "inputs": [],
      "name": "name",
      "outputs": [
        {
          "internalType": "string",
          "name": "",
          "type": "string"
        }
      ],
      "stateMutability": "view",
      "type": "function"
    },
    {
      "inputs": [],
      "name": "owner",
      "outputs": [
        {
          "internalType": "address",
          "name": "",
          "type": "address"
        }
      ],
      "stateMutability": "view",
      "type": "function"
    },
    {
      "inputs": [
        {
          "internalType": "uint256",
          "name": "tokenId",
          "type": "uint256"
        }
      ],
      "name": "ownerOf",
      "outputs": [
        {
          "internalType": "address",
          "name": "",
          "type": "address"
        }
      ],
      "stateMutability": "view",
      "type": "function"
    },
    {
      "inputs": [],
      "name": "ownerRoyalty",
      "outputs": [
        {
          "internalType": "uint256",
          "name": "",
          "type": "uint256"
        }
      ],
      "stateMutability": "view",
      "type": "function"
    },
    {
      "inputs": [
        {
          "internalType": "uint256",
          "name": "_tokenId",
          "type": "uint256"
        }
      ],
      "name": "priceOf",
      "outputs": [
        {
          "internalType": "uint256",
          "name": "",
          "type": "uint256"
        }
      ],
      "stateMutability": "view",
      "type": "function"
    },
    {
      "inputs": [
        {
          "internalType": "bytes32",
          "name": "role",
          "type": "bytes32"
        },
        {
          "internalType": "address",
          "name": "account",
          "type": "address"
        }
      ],
      "name": "renounceRole",
      "outputs": [],
      "stateMutability": "nonpayable",
      "type": "function"
    },
    {
      "inputs": [
        {
          "internalType": "bytes32",
          "name": "role",
          "type": "bytes32"
        },
        {
          "internalType": "address",
          "name": "account",
          "type": "address"
        }
      ],
      "name": "revokeRole",
      "outputs": [],
      "stateMutability": "nonpayable",
      "type": "function"
    },
    {
      "inputs": [
        {
          "internalType": "address",
          "name": "from",
          "type": "address"
        },
        {
          "internalType": "address",
          "name": "to",
          "type": "address"
        },
        {
          "internalType": "uint256",
          "name": "tokenId",
          "type": "uint256"
        }
      ],
      "name": "safeTransferFrom",
      "outputs": [],
      "stateMutability": "payable",
      "type": "function"
    },
    {
      "inputs": [
        {
          "internalType": "address",
          "name": "from",
          "type": "address"
        },
        {
          "internalType": "address",
          "name": "to",
          "type": "address"
        },
        {
          "internalType": "uint256",
          "name": "tokenId",
          "type": "uint256"
        },
        {
          "internalType": "bytes",
          "name": "_data",
          "type": "bytes"
        }
      ],
      "name": "safeTransferFrom",
      "outputs": [],
      "stateMutability": "payable",
      "type": "function"
    },
    {
      "inputs": [
        {
          "internalType": "address",
          "name": "operator",
          "type": "address"
        },
        {
          "internalType": "bool",
          "name": "approved",
          "type": "bool"
        }
      ],
      "name": "setApprovalForAll",
      "outputs": [],
      "stateMutability": "nonpayable",
      "type": "function"
    },
    {
      "inputs": [
        {
          "internalType": "bytes4",
          "name": "interfaceId",
          "type": "bytes4"
        }
      ],
      "name": "supportsInterface",
      "outputs": [
        {
          "internalType": "bool",
          "name": "",
          "type": "bool"
        }
      ],
      "stateMutability": "view",
      "type": "function"
    },
    {
      "inputs": [],
      "name": "symbol",
      "outputs": [
        {
          "internalType": "string",
          "name": "",
          "type": "string"
        }
      ],
      "stateMutability": "view",
      "type": "function"
    },
    {
      "inputs": [
        {
          "internalType": "uint256",
          "name": "_tokenId",
          "type": "uint256"
        }
      ],
      "name": "tokenURI",
      "outputs": [
        {
          "internalType": "string",
          "name": "",
          "type": "string"
        }
      ],
      "stateMutability": "view",
      "type": "function"
    },
    {
      "inputs": [],
      "name": "totalSupply",
      "outputs": [
        {
          "internalType": "uint256",
          "name": "",
          "type": "uint256"
        }
      ],
      "stateMutability": "view",
      "type": "function"
    },
    {
      "inputs": [
        {
          "internalType": "address",
          "name": "from",
          "type": "address"
        },
        {
          "internalType": "address",
          "name": "to",
          "type": "address"
        },
        {
          "internalType": "uint256",
          "name": "tokenId",
          "type": "uint256"
        }
      ],
      "name": "transferFrom",
      "outputs": [],
      "stateMutability": "payable",
      "type": "function"
    },
    {
      "inputs": [
        {
          "internalType": "uint256",
          "name": "_tokenId",
          "type": "uint256"
        },
        {
          "internalType": "bool",
          "name": "_status",
          "type": "bool"
        }
      ],
      "name": "updateAllowResaleStatus",
      "outputs": [],
      "stateMutability": "nonpayable",
      "type": "function"
    },
    {
      "inputs": [
        {
          "internalType": "uint256",
          "name": "_tokenId",
          "type": "uint256"
        },
        {
          "internalType": "bytes32",
          "name": "_hash",
          "type": "bytes32"
        }
      ],
      "name": "updateHash",
      "outputs": [],
      "stateMutability": "nonpayable",
      "type": "function"
    },
    {
      "inputs": [
        {
          "internalType": "address",
          "name": "_market",
          "type": "address"
        }
      ],
      "name": "updateMarketAddress",
      "outputs": [],
      "stateMutability": "nonpayable",
      "type": "function"
    },
    {
      "inputs": [
        {
          "internalType": "uint256",
          "name": "_royalty",
          "type": "uint256"
        }
      ],
      "name": "updateOwnerRoyalty",
      "outputs": [],
      "stateMutability": "nonpayable",
      "type": "function"
    },
    {
      "inputs": [
        {
          "internalType": "uint256",
          "name": "_tokenId",
          "type": "uint256"
        },
        {
          "internalType": "uint256",
          "name": "_price",
          "type": "uint256"
        }
      ],
      "name": "updatePrice",
      "outputs": [],
      "stateMutability": "nonpayable",
      "type": "function"
    },
    {
      "inputs": [
        {
          "internalType": "uint256",
          "name": "_tokenId",
          "type": "uint256"
        },
        {
          "internalType": "bool",
          "name": "_status",
          "type": "bool"
        }
      ],
      "name": "updateSaleStatus",
      "outputs": [],
      "stateMutability": "nonpayable",
      "type": "function"
    }
  ],
  "bytecode": "0x608060405260006009553480156200001657600080fd5b50604051620042db380380620042db83398181016040528101906200003c919062000510565b838381600290816200004f91906200080b565b5080600390816200006191906200080b565b5062000072620001ae60201b60201c565b600081905550505081600a60006101000a81548173ffffffffffffffffffffffffffffffffffffffff021916908373ffffffffffffffffffffffffffffffffffffffff16021790555080600b60006101000a81548173ffffffffffffffffffffffffffffffffffffffff021916908373ffffffffffffffffffffffffffffffffffffffff160217905550620001507fb19546dff01e856fb3f010c267a7b1c60363cf8a4664e21cc89c26224620214e600a60009054906101000a900473ffffffffffffffffffffffffffffffffffffffff16620001b360201b60201c565b620001a47f395f08be531c0d7403cba7c5ffd2b57329184452bcebcd6a48299ebbbf39db6f600b60009054906101000a900473ffffffffffffffffffffffffffffffffffffffff16620001b360201b60201c565b50505050620008f2565b600090565b620001c58282620002a560201b60201c565b620002a15760016008600084815260200190815260200160002060000160008373ffffffffffffffffffffffffffffffffffffffff1673ffffffffffffffffffffffffffffffffffffffff16815260200190815260200160002060006101000a81548160ff021916908315150217905550620002466200031060201b60201c565b73ffffffffffffffffffffffffffffffffffffffff168173ffffffffffffffffffffffffffffffffffffffff16837f2f8788117e7eff1d82e926ec794901d17c78024a50270940304540a733656f0d60405160405180910390a45b5050565b60006008600084815260200190815260200160002060000160008373ffffffffffffffffffffffffffffffffffffffff1673ffffffffffffffffffffffffffffffffffffffff16815260200190815260200160002060009054906101000a900460ff16905092915050565b600033905090565b6000604051905090565b600080fd5b600080fd5b600080fd5b600080fd5b6000601f19601f8301169050919050565b7f4e487b7100000000000000000000000000000000000000000000000000000000600052604160045260246000fd5b620003818262000336565b810181811067ffffffffffffffff82111715620003a357620003a262000347565b5b80604052505050565b6000620003b862000318565b9050620003c6828262000376565b919050565b600067ffffffffffffffff821115620003e957620003e862000347565b5b620003f48262000336565b9050602081019050919050565b60005b838110156200042157808201518184015260208101905062000404565b60008484015250505050565b6000620004446200043e84620003cb565b620003ac565b90508281526020810184848401111562000463576200046262000331565b5b6200047084828562000401565b509392505050565b600082601f83011262000490576200048f6200032c565b5b8151620004a28482602086016200042d565b91505092915050565b600073ffffffffffffffffffffffffffffffffffffffff82169050919050565b6000620004d882620004ab565b9050919050565b620004ea81620004cb565b8114620004f657600080fd5b50565b6000815190506200050a81620004df565b92915050565b600080600080608085870312156200052d576200052c62000322565b5b600085015167ffffffffffffffff8111156200054e576200054d62000327565b5b6200055c8782880162000478565b945050602085015167ffffffffffffffff81111562000580576200057f62000327565b5b6200058e8782880162000478565b9350506040620005a187828801620004f9565b9250506060620005b487828801620004f9565b91505092959194509250565b600081519050919050565b7f4e487b7100000000000000000000000000000000000000000000000000000000600052602260045260246000fd5b600060028204905060018216806200061357607f821691505b602082108103620006295762000628620005cb565b5b50919050565b60008190508160005260206000209050919050565b60006020601f8301049050919050565b600082821b905092915050565b600060088302620006937fffffffffffffffffffffffffffffffffffffffffffffffffffffffffffffffff8262000654565b6200069f868362000654565b95508019841693508086168417925050509392505050565b6000819050919050565b6000819050919050565b6000620006ec620006e6620006e084620006b7565b620006c1565b620006b7565b9050919050565b6000819050919050565b6200070883620006cb565b620007206200071782620006f3565b84845462000661565b825550505050565b600090565b6200073762000728565b62000744818484620006fd565b505050565b5b818110156200076c57620007606000826200072d565b6001810190506200074a565b5050565b601f821115620007bb5762000785816200062f565b620007908462000644565b81016020851015620007a0578190505b620007b8620007af8562000644565b83018262000749565b50505b505050565b600082821c905092915050565b6000620007e060001984600802620007c0565b1980831691505092915050565b6000620007fb8383620007cd565b9150826002028217905092915050565b6200081682620005c0565b67ffffffffffffffff81111562000832576200083162000347565b5b6200083e8254620005fa565b6200084b82828562000770565b600060209050601f8311600181146200088357600084156200086e578287015190505b6200087a8582620007ed565b865550620008ea565b601f19841662000893866200062f565b60005b82811015620008bd5784890151825560018201915060208501945060208101905062000896565b86831015620008dd5784890151620008d9601f891682620007cd565b8355505b6001600288020188555050505b505050505050565b6139d980620009026000396000f3fe6080604052600436106102305760003560e01c80638546d0021161012e578063b1f52e80116100ab578063c87b56dd1161006f578063c87b56dd14610850578063d547741f1461088d578063e58378bb146108b6578063e7334fe5146108e1578063e985e9c51461090c57610230565b8063b1f52e801461077c578063b88d4fde146107a5578063b9186d7d146107c1578063ba9b11e2146107fe578063bf0c8c161461082757610230565b806395d89b41116100f257806395d89b41146106ab578063a0563fc4146106d6578063a217fddf146106ff578063a22cb4651461072a578063a5afbcb81461075357610230565b80638546d0021461059e578063893d20e8146105db5780638da5cb5b14610606578063905b39951461063157806391d148541461066e57610230565b8063248a9ca3116101bc5780636352211e116101805780636352211e146104a557806370a08231146104e257806375ffb3831461051f57806380f556051461054a57806382367b2d1461057557610230565b8063248a9ca3146103cf5780632f2ff15d1461040c57806336568abe146104355780633e27ec9b1461045e57806342842e0e1461048957610230565b806316c9cde51161020357806316c9cde5146102f657806318160ddd146103345780631ec498421461035f578063227096a31461038857806323b872dd146103b357610230565b806301ffc9a71461023557806306fdde0314610272578063081812fc1461029d578063095ea7b3146102da575b600080fd5b34801561024157600080fd5b5061025c600480360381019061025791906128b4565b610949565b60405161026991906128fc565b60405180910390f35b34801561027e57600080fd5b5061028761095b565b60405161029491906129a7565b60405180910390f35b3480156102a957600080fd5b506102c460048036038101906102bf91906129ff565b6109ed565b6040516102d19190612a6d565b60405180910390f35b6102f460048036038101906102ef9190612ab4565b610a6c565b005b34801561030257600080fd5b5061031d60048036038101906103189190612b2a565b610bb0565b60405161032b929190612b66565b60405180910390f35b34801561034057600080fd5b50610349610bdf565b6040516103569190612b8f565b60405180910390f35b34801561036b57600080fd5b5061038660048036038101906103819190612de1565b610bf6565b005b34801561039457600080fd5b5061039d610d72565b6040516103aa9190612b8f565b60405180910390f35b6103cd60048036038101906103c89190612e59565b610d7c565b005b3480156103db57600080fd5b506103f660048036038101906103f19190612b2a565b61109e565b6040516104039190612ebb565b60405180910390f35b34801561041857600080fd5b50610433600480360381019061042e9190612ed6565b6110be565b005b34801561044157600080fd5b5061045c60048036038101906104579190612ed6565b6110df565b005b34801561046a57600080fd5b50610473611162565b6040516104809190612ebb565b60405180910390f35b6104a3600480360381019061049e9190612e59565b611186565b005b3480156104b157600080fd5b506104cc60048036038101906104c791906129ff565b6111a6565b6040516104d99190612a6d565b60405180910390f35b3480156104ee57600080fd5b5061050960048036038101906105049190612f16565b6111b8565b6040516105169190612b8f565b60405180910390f35b34801561052b57600080fd5b50610534611270565b6040516105419190612b8f565b60405180910390f35b34801561055657600080fd5b5061055f611276565b60405161056c9190612a6d565b60405180910390f35b34801561058157600080fd5b5061059c60048036038101906105979190612f43565b61129c565b005b3480156105aa57600080fd5b506105c560048036038101906105c091906129ff565b61132e565b6040516105d291906128fc565b60405180910390f35b3480156105e757600080fd5b506105f06113a3565b6040516105fd9190612a6d565b60405180910390f35b34801561061257600080fd5b5061061b6113cd565b6040516106289190612a6d565b60405180910390f35b34801561063d57600080fd5b50610658600480360381019061065391906129ff565b6113f3565b60405161066591906128fc565b60405180910390f35b34801561067a57600080fd5b5061069560048036038101906106909190612ed6565b611468565b6040516106a291906128fc565b60405180910390f35b3480156106b757600080fd5b506106c06114d3565b6040516106cd91906129a7565b60405180910390f35b3480156106e257600080fd5b506106fd60048036038101906106f89190612f83565b611565565b005b34801561070b57600080fd5b50610714611680565b6040516107219190612ebb565b60405180910390f35b34801561073657600080fd5b50610751600480360381019061074c9190612fc3565b611687565b005b34801561075f57600080fd5b5061077a60048036038101906107759190612f16565b611792565b005b34801561078857600080fd5b506107a3600480360381019061079e9190613003565b6118f3565b005b6107bf60048036038101906107ba91906130f8565b611982565b005b3480156107cd57600080fd5b506107e860048036038101906107e391906129ff565b6119f5565b6040516107f59190612b8f565b60405180910390f35b34801561080a57600080fd5b50610825600480360381019061082091906129ff565b611a5d565b005b34801561083357600080fd5b5061084e60048036038101906108499190612f83565b611aea565b005b34801561085c57600080fd5b50610877600480360381019061087291906129ff565b611bde565b60405161088491906129a7565b60405180910390f35b34801561089957600080fd5b506108b460048036038101906108af9190612ed6565b611c65565b005b3480156108c257600080fd5b506108cb611c86565b6040516108d89190612ebb565b60405180910390f35b3480156108ed57600080fd5b506108f6611caa565b6040516109039190612a6d565b60405180910390f35b34801561091857600080fd5b50610933600480360381019061092e919061317b565b611cd4565b60405161094091906128fc565b60405180910390f35b600061095482611d68565b9050919050565b60606002805461096a906131ea565b80601f0160208091040260200160405190810160405280929190818152602001828054610996906131ea565b80156109e35780601f106109b8576101008083540402835291602001916109e3565b820191906000526020600020905b8154815290600101906020018083116109c657829003601f168201915b5050505050905090565b60006109f882611de2565b610a2e576040517fcf4700e400000000000000000000000000000000000000000000000000000000815260040160405180910390fd5b6006600083815260200190815260200160002060000160009054906101000a900473ffffffffffffffffffffffffffffffffffffffff169050919050565b6000610a77826111a6565b90508073ffffffffffffffffffffffffffffffffffffffff16610a98611e41565b73ffffffffffffffffffffffffffffffffffffffff1614610afb57610ac481610abf611e41565b611cd4565b610afa576040517fcfb3b94200000000000000000000000000000000000000000000000000000000815260040160405180910390fd5b5b826006600084815260200190815260200160002060000160006101000a81548173ffffffffffffffffffffffffffffffffffffffff021916908373ffffffffffffffffffffffffffffffffffffffff160217905550818373ffffffffffffffffffffffffffffffffffffffff168273ffffffffffffffffffffffffffffffffffffffff167f8c5be1e5ebec7d5bd14f71427d1e84f3dd0314c0f7b2291e5b200ac8c7c3b92560405160405180910390a4505050565b6000806000600d6000858152602001908152602001600020549050610bd4816111a6565b819250925050915091565b6000610be9611e49565b6001546000540303905090565b7fb19546dff01e856fb3f010c267a7b1c60363cf8a4664e21cc89c26224620214e610c2081611e4e565b8151835114610c64576040517f08c379a0000000000000000000000000000000000000000000000000000000008152600401610c5b9061328d565b60405180910390fd5b6000610c6e611e62565b9050610c7b338551611e6b565b6000610c85611e62565b905060008290505b81811015610d6a57858382610ca291906132dc565b81518110610cb357610cb2613310565b5b6020026020010151600c6000838152602001908152602001600020600001819055506001600c600083815260200190815260200160002060020160006101000a81548160ff021916908315150217905550848382610d1191906132dc565b81518110610d2257610d21613310565b5b6020026020010151600c600083815260200190815260200160002060020160016101000a81548160ff0219169083151502179055508080610d629061333f565b915050610c8d565b505050505050565b6000600954905090565b6000610d8782612026565b90508373ffffffffffffffffffffffffffffffffffffffff168173ffffffffffffffffffffffffffffffffffffffff1614610dee576040517fa114810000000000000000000000000000000000000000000000000000000000815260040160405180910390fd5b600080610dfa846120f2565b91509150610e108187610e0b611e41565b612119565b610e5c57610e2586610e20611e41565b611cd4565b610e5b576040517f59c896be00000000000000000000000000000000000000000000000000000000815260040160405180910390fd5b5b600073ffffffffffffffffffffffffffffffffffffffff168573ffffffffffffffffffffffffffffffffffffffff1603610ec2576040517fea553b3400000000000000000000000000000000000000000000000000000000815260040160405180910390fd5b610ecf868686600161215d565b8015610eda57600082555b600560008773ffffffffffffffffffffffffffffffffffffffff1673ffffffffffffffffffffffffffffffffffffffff168152602001908152602001600020600081546001900391905081905550600560008673ffffffffffffffffffffffffffffffffffffffff1673ffffffffffffffffffffffffffffffffffffffff1681526020019081526020016000206000815460010191905081905550610fa885610f84888887612163565b7c02000000000000000000000000000000000000000000000000000000001761218b565b600460008681526020019081526020016000208190555060007c020000000000000000000000000000000000000000000000000000000084160361102e576000600185019050600060046000838152602001908152602001600020540361102c57600054811461102b578360046000838152602001908152602001600020819055505b5b505b838573ffffffffffffffffffffffffffffffffffffffff168773ffffffffffffffffffffffffffffffffffffffff167fddf252ad1be2c89b69c2b068fc378daa952ba7f163c4a11628f55a4df523b3ef60405160405180910390a461109686868660016121b6565b505050505050565b600060086000838152602001908152602001600020600101549050919050565b6110c78261109e565b6110d081611e4e565b6110da83836121bc565b505050565b6110e761229d565b73ffffffffffffffffffffffffffffffffffffffff168173ffffffffffffffffffffffffffffffffffffffff1614611154576040517f08c379a000000000000000000000000000000000000000000000000000000000815260040161114b906133f9565b60405180910390fd5b61115e82826122a5565b5050565b7f395f08be531c0d7403cba7c5ffd2b57329184452bcebcd6a48299ebbbf39db6f81565b6111a183838360405180602001604052806000815250611982565b505050565b60006111b182612026565b9050919050565b60008073ffffffffffffffffffffffffffffffffffffffff168273ffffffffffffffffffffffffffffffffffffffff160361121f576040517f8f4eb60400000000000000000000000000000000000000000000000000000000815260040160405180910390fd5b67ffffffffffffffff600560008473ffffffffffffffffffffffffffffffffffffffff1673ffffffffffffffffffffffffffffffffffffffff16815260200190815260200160002054169050919050565b60095481565b600b60009054906101000a900473ffffffffffffffffffffffffffffffffffffffff1681565b7f395f08be531c0d7403cba7c5ffd2b57329184452bcebcd6a48299ebbbf39db6f6112c681611e4e565b6112cf83611de2565b61130e576040517f08c379a000000000000000000000000000000000000000000000000000000000815260040161130590613465565b60405180910390fd5b81600c600085815260200190815260200160002060000181905550505050565b600061133982611de2565b611378576040517f08c379a000000000000000000000000000000000000000000000000000000000815260040161136f90613465565b60405180910390fd5b600c600083815260200190815260200160002060020160009054906101000a900460ff169050919050565b6000600a60009054906101000a900473ffffffffffffffffffffffffffffffffffffffff16905090565b600a60009054906101000a900473ffffffffffffffffffffffffffffffffffffffff1681565b60006113fe82611de2565b61143d576040517f08c379a000000000000000000000000000000000000000000000000000000000815260040161143490613465565b60405180910390fd5b600c600083815260200190815260200160002060020160019054906101000a900460ff169050919050565b60006008600084815260200190815260200160002060000160008373ffffffffffffffffffffffffffffffffffffffff1673ffffffffffffffffffffffffffffffffffffffff16815260200190815260200160002060009054906101000a900460ff16905092915050565b6060600380546114e2906131ea565b80601f016020809104026020016040519081016040528092919081815260200182805461150e906131ea565b801561155b5780601f106115305761010080835404028352916020019161155b565b820191906000526020600020905b81548152906001019060200180831161153e57829003601f168201915b5050505050905090565b7fb19546dff01e856fb3f010c267a7b1c60363cf8a4664e21cc89c26224620214e61158f81611e4e565b61159883611de2565b6115d7576040517f08c379a00000000000000000000000000000000000000000000000000000000081526004016115ce90613465565b60405180910390fd5b3373ffffffffffffffffffffffffffffffffffffffff166115f7846111a6565b73ffffffffffffffffffffffffffffffffffffffff161461164d576040517f08c379a0000000000000000000000000000000000000000000000000000000008152600401611644906134f7565b60405180910390fd5b81600c600085815260200190815260200160002060020160016101000a81548160ff021916908315150217905550505050565b6000801b81565b8060076000611694611e41565b73ffffffffffffffffffffffffffffffffffffffff1673ffffffffffffffffffffffffffffffffffffffff16815260200190815260200160002060008473ffffffffffffffffffffffffffffffffffffffff1673ffffffffffffffffffffffffffffffffffffffff16815260200190815260200160002060006101000a81548160ff0219169083151502179055508173ffffffffffffffffffffffffffffffffffffffff16611741611e41565b73ffffffffffffffffffffffffffffffffffffffff167f17307eab39ab6107e8899845ad3d59bd9653f200f220920489ca2b5937696c318360405161178691906128fc565b60405180910390a35050565b7fb19546dff01e856fb3f010c267a7b1c60363cf8a4664e21cc89c26224620214e6117bc81611e4e565b6118087f395f08be531c0d7403cba7c5ffd2b57329184452bcebcd6a48299ebbbf39db6f600b60009054906101000a900473ffffffffffffffffffffffffffffffffffffffff166122a5565b611835600b60009054906101000a900473ffffffffffffffffffffffffffffffffffffffff166000611687565b81600b60006101000a81548173ffffffffffffffffffffffffffffffffffffffff021916908373ffffffffffffffffffffffffffffffffffffffff1602179055506118c27f395f08be531c0d7403cba7c5ffd2b57329184452bcebcd6a48299ebbbf39db6f600b60009054906101000a900473ffffffffffffffffffffffffffffffffffffffff166121bc565b6118ef600b60009054906101000a900473ffffffffffffffffffffffffffffffffffffffff166001611687565b5050565b7f395f08be531c0d7403cba7c5ffd2b57329184452bcebcd6a48299ebbbf39db6f61191d81611e4e565b61192683611de2565b611965576040517f08c379a000000000000000000000000000000000000000000000000000000000815260040161195c90613465565b60405180910390fd5b82600d600084815260200190815260200160002081905550505050565b61198d848484610d7c565b60008373ffffffffffffffffffffffffffffffffffffffff163b146119ef576119b884848484612387565b6119ee576040517fd1a57ed600000000000000000000000000000000000000000000000000000000815260040160405180910390fd5b5b50505050565b6000611a0082611de2565b611a3f576040517f08c379a0000000000000000000000000000000000000000000000000000000008152600401611a3690613563565b60405180910390fd5b600c6000838152602001908152602001600020600001549050919050565b7fb19546dff01e856fb3f010c267a7b1c60363cf8a4664e21cc89c26224620214e611a8781611e4e565b60008210158015611aa05750670de0b6b3a76400008211155b611adf576040517f08c379a0000000000000000000000000000000000000000000000000000000008152600401611ad6906135f5565b60405180910390fd5b816009819055505050565b7f395f08be531c0d7403cba7c5ffd2b57329184452bcebcd6a48299ebbbf39db6f611b1481611e4e565b611b1d83611de2565b611b5c576040517f08c379a0000000000000000000000000000000000000000000000000000000008152600401611b5390613465565b60405180910390fd5b8115611bab57611b6b836113f3565b611baa576040517f08c379a0000000000000000000000000000000000000000000000000000000008152600401611ba190613687565b60405180910390fd5b5b81600c600085815260200190815260200160002060020160006101000a81548160ff021916908315150217905550505050565b6060611be982611de2565b611c28576040517f08c379a0000000000000000000000000000000000000000000000000000000008152600401611c1f90613563565b60405180910390fd5b6040518060400160405280601f81526020017f68747470733a2f2f7777772e6578616d706c652e636f6d3f69643d7b69647d008152509050919050565b611c6e8261109e565b611c7781611e4e565b611c8183836122a5565b505050565b7fb19546dff01e856fb3f010c267a7b1c60363cf8a4664e21cc89c26224620214e81565b6000600b60009054906101000a900473ffffffffffffffffffffffffffffffffffffffff16905090565b6000600760008473ffffffffffffffffffffffffffffffffffffffff1673ffffffffffffffffffffffffffffffffffffffff16815260200190815260200160002060008373ffffffffffffffffffffffffffffffffffffffff1673ffffffffffffffffffffffffffffffffffffffff16815260200190815260200160002060009054906101000a900460ff16905092915050565b60007f7965db0b000000000000000000000000000000000000000000000000000000007bffffffffffffffffffffffffffffffffffffffffffffffffffffffff1916827bffffffffffffffffffffffffffffffffffffffffffffffffffffffff19161480611ddb5750611dda826124d7565b5b9050919050565b600081611ded611e49565b11158015611dfc575060005482105b8015611e3a575060007c0100000000000000000000000000000000000000000000000000000000600460008581526020019081526020016000205416145b9050919050565b600033905090565b600090565b611e5f81611e5a61229d565b612541565b50565b60008054905090565b60008054905060008203611eab576040517fb562e8dd00000000000000000000000000000000000000000000000000000000815260040160405180910390fd5b611eb8600084838561215d565b600160406001901b178202600560008573ffffffffffffffffffffffffffffffffffffffff1673ffffffffffffffffffffffffffffffffffffffff16815260200190815260200160002060008282540192505081905550611f2f83611f206000866000612163565b611f29856125c6565b1761218b565b6004600083815260200190815260200160002081905550600080838301905073ffffffffffffffffffffffffffffffffffffffff85169150828260007fddf252ad1be2c89b69c2b068fc378daa952ba7f163c4a11628f55a4df523b3ef600080a4600183015b818114611fd057808360007fddf252ad1be2c89b69c2b068fc378daa952ba7f163c4a11628f55a4df523b3ef600080a4600181019050611f95565b506000820361200b576040517f2e07630000000000000000000000000000000000000000000000000000000000815260040160405180910390fd5b80600081905550505061202160008483856121b6565b505050565b60008082905080612035611e49565b116120bb576000548110156120ba5760006004600083815260200190815260200160002054905060007c01000000000000000000000000000000000000000000000000000000008216036120b8575b600081036120ae576004600083600190039350838152602001908152602001600020549050612084565b80925050506120ed565b505b5b6040517fdf2d9b4200000000000000000000000000000000000000000000000000000000815260040160405180910390fd5b919050565b60008060006006600085815260200190815260200160002090508092508254915050915091565b600073ffffffffffffffffffffffffffffffffffffffff8316925073ffffffffffffffffffffffffffffffffffffffff821691508382148383141790509392505050565b50505050565b60008060e883901c905060e861217a8686846125d6565b62ffffff16901b9150509392505050565b600073ffffffffffffffffffffffffffffffffffffffff83169250814260a01b178317905092915050565b50505050565b6121c68282611468565b6122995760016008600084815260200190815260200160002060000160008373ffffffffffffffffffffffffffffffffffffffff1673ffffffffffffffffffffffffffffffffffffffff16815260200190815260200160002060006101000a81548160ff02191690831515021790555061223e61229d565b73ffffffffffffffffffffffffffffffffffffffff168173ffffffffffffffffffffffffffffffffffffffff16837f2f8788117e7eff1d82e926ec794901d17c78024a50270940304540a733656f0d60405160405180910390a45b5050565b600033905090565b6122af8282611468565b156123835760006008600084815260200190815260200160002060000160008373ffffffffffffffffffffffffffffffffffffffff1673ffffffffffffffffffffffffffffffffffffffff16815260200190815260200160002060006101000a81548160ff02191690831515021790555061232861229d565b73ffffffffffffffffffffffffffffffffffffffff168173ffffffffffffffffffffffffffffffffffffffff16837ff6391f5c32d9c69d2a47ea670b442974b53935d1edc7fd64eb21e047a839171b60405160405180910390a45b5050565b60008373ffffffffffffffffffffffffffffffffffffffff1663150b7a026123ad611e41565b8786866040518563ffffffff1660e01b81526004016123cf94939291906136fc565b6020604051808303816000875af192505050801561240b57506040513d601f19601f82011682018060405250810190612408919061375d565b60015b612484573d806000811461243b576040519150601f19603f3d011682016040523d82523d6000602084013e612440565b606091505b50600081510361247c576040517fd1a57ed600000000000000000000000000000000000000000000000000000000815260040160405180910390fd5b805181602001fd5b63150b7a0260e01b7bffffffffffffffffffffffffffffffffffffffffffffffffffffffff1916817bffffffffffffffffffffffffffffffffffffffffffffffffffffffff191614915050949350505050565b60007f01ffc9a7000000000000000000000000000000000000000000000000000000007bffffffffffffffffffffffffffffffffffffffffffffffffffffffff1916827bffffffffffffffffffffffffffffffffffffffffffffffffffffffff1916149050919050565b61254b8282611468565b6125c257612558816125df565b6125668360001c602061260c565b60405160200161257792919061385e565b6040516020818303038152906040526040517f08c379a00000000000000000000000000000000000000000000000000000000081526004016125b991906129a7565b60405180910390fd5b5050565b60006001821460e11b9050919050565b60009392505050565b60606126058273ffffffffffffffffffffffffffffffffffffffff16601460ff1661260c565b9050919050565b60606000600283600261261f9190613898565b61262991906138da565b67ffffffffffffffff81111561264257612641612baf565b5b6040519080825280601f01601f1916602001820160405280156126745781602001600182028036833780820191505090505b5090507f3000000000000000000000000000000000000000000000000000000000000000816000815181106126ac576126ab613310565b5b60200101907effffffffffffffffffffffffffffffffffffffffffffffffffffffffffffff1916908160001a9053507f7800000000000000000000000000000000000000000000000000000000000000816001815181106127105761270f613310565b5b60200101907effffffffffffffffffffffffffffffffffffffffffffffffffffffffffffff1916908160001a905350600060018460026127509190613898565b61275a91906138da565b90505b60018111156127fa577f3031323334353637383961626364656600000000000000000000000000000000600f86166010811061279c5761279b613310565b5b1a60f81b8282815181106127b3576127b2613310565b5b60200101907effffffffffffffffffffffffffffffffffffffffffffffffffffffffffffff1916908160001a905350600485901c9450806127f39061390e565b905061275d565b506000841461283e576040517f08c379a000000000000000000000000000000000000000000000000000000000815260040161283590613983565b60405180910390fd5b8091505092915050565b6000604051905090565b600080fd5b600080fd5b60007fffffffff0000000000000000000000000000000000000000000000000000000082169050919050565b6128918161285c565b811461289c57600080fd5b50565b6000813590506128ae81612888565b92915050565b6000602082840312156128ca576128c9612852565b5b60006128d88482850161289f565b91505092915050565b60008115159050919050565b6128f6816128e1565b82525050565b600060208201905061291160008301846128ed565b92915050565b600081519050919050565b600082825260208201905092915050565b60005b83811015612951578082015181840152602081019050612936565b60008484015250505050565b6000601f19601f8301169050919050565b600061297982612917565b6129838185612922565b9350612993818560208601612933565b61299c8161295d565b840191505092915050565b600060208201905081810360008301526129c1818461296e565b905092915050565b6000819050919050565b6129dc816129c9565b81146129e757600080fd5b50565b6000813590506129f9816129d3565b92915050565b600060208284031215612a1557612a14612852565b5b6000612a23848285016129ea565b91505092915050565b600073ffffffffffffffffffffffffffffffffffffffff82169050919050565b6000612a5782612a2c565b9050919050565b612a6781612a4c565b82525050565b6000602082019050612a826000830184612a5e565b92915050565b612a9181612a4c565b8114612a9c57600080fd5b50565b600081359050612aae81612a88565b92915050565b60008060408385031215612acb57612aca612852565b5b6000612ad985828601612a9f565b9250506020612aea858286016129ea565b9150509250929050565b6000819050919050565b612b0781612af4565b8114612b1257600080fd5b50565b600081359050612b2481612afe565b92915050565b600060208284031215612b4057612b3f612852565b5b6000612b4e84828501612b15565b91505092915050565b612b60816129c9565b82525050565b6000604082019050612b7b6000830185612a5e565b612b886020830184612b57565b9392505050565b6000602082019050612ba46000830184612b57565b92915050565b600080fd5b7f4e487b7100000000000000000000000000000000000000000000000000000000600052604160045260246000fd5b612be78261295d565b810181811067ffffffffffffffff82111715612c0657612c05612baf565b5b80604052505050565b6000612c19612848565b9050612c258282612bde565b919050565b600067ffffffffffffffff821115612c4557612c44612baf565b5b602082029050602081019050919050565b600080fd5b6000612c6e612c6984612c2a565b612c0f565b90508083825260208201905060208402830185811115612c9157612c90612c56565b5b835b81811015612cba5780612ca688826129ea565b845260208401935050602081019050612c93565b5050509392505050565b600082601f830112612cd957612cd8612baa565b5b8135612ce9848260208601612c5b565b91505092915050565b600067ffffffffffffffff821115612d0d57612d0c612baf565b5b602082029050602081019050919050565b612d27816128e1565b8114612d3257600080fd5b50565b600081359050612d4481612d1e565b92915050565b6000612d5d612d5884612cf2565b612c0f565b90508083825260208201905060208402830185811115612d8057612d7f612c56565b5b835b81811015612da95780612d958882612d35565b845260208401935050602081019050612d82565b5050509392505050565b600082601f830112612dc857612dc7612baa565b5b8135612dd8848260208601612d4a565b91505092915050565b60008060408385031215612df857612df7612852565b5b600083013567ffffffffffffffff811115612e1657612e15612857565b5b612e2285828601612cc4565b925050602083013567ffffffffffffffff811115612e4357612e42612857565b5b612e4f85828601612db3565b9150509250929050565b600080600060608486031215612e7257612e71612852565b5b6000612e8086828701612a9f565b9350506020612e9186828701612a9f565b9250506040612ea2868287016129ea565b9150509250925092565b612eb581612af4565b82525050565b6000602082019050612ed06000830184612eac565b92915050565b60008060408385031215612eed57612eec612852565b5b6000612efb85828601612b15565b9250506020612f0c85828601612a9f565b9150509250929050565b600060208284031215612f2c57612f2b612852565b5b6000612f3a84828501612a9f565b91505092915050565b60008060408385031215612f5a57612f59612852565b5b6000612f68858286016129ea565b9250506020612f79858286016129ea565b9150509250929050565b60008060408385031215612f9a57612f99612852565b5b6000612fa8858286016129ea565b9250506020612fb985828601612d35565b9150509250929050565b60008060408385031215612fda57612fd9612852565b5b6000612fe885828601612a9f565b9250506020612ff985828601612d35565b9150509250929050565b6000806040838503121561301a57613019612852565b5b6000613028858286016129ea565b925050602061303985828601612b15565b9150509250929050565b600080fd5b600067ffffffffffffffff82111561306357613062612baf565b5b61306c8261295d565b9050602081019050919050565b82818337600083830152505050565b600061309b61309684613048565b612c0f565b9050828152602081018484840111156130b7576130b6613043565b5b6130c2848285613079565b509392505050565b600082601f8301126130df576130de612baa565b5b81356130ef848260208601613088565b91505092915050565b6000806000806080858703121561311257613111612852565b5b600061312087828801612a9f565b945050602061313187828801612a9f565b9350506040613142878288016129ea565b925050606085013567ffffffffffffffff81111561316357613162612857565b5b61316f878288016130ca565b91505092959194509250565b6000806040838503121561319257613191612852565b5b60006131a085828601612a9f565b92505060206131b185828601612a9f565b9150509250929050565b7f4e487b7100000000000000000000000000000000000000000000000000000000600052602260045260246000fd5b6000600282049050600182168061320257607f821691505b602082108103613215576132146131bb565b5b50919050565b7f50726963657320616e6420526573616c65205065726d697373696f6e2061727260008201527f6179206d7573742062652073616d65206c656e67746821000000000000000000602082015250565b6000613277603783612922565b91506132828261321b565b604082019050919050565b600060208201905081810360008301526132a68161326a565b9050919050565b7f4e487b7100000000000000000000000000000000000000000000000000000000600052601160045260246000fd5b60006132e7826129c9565b91506132f2836129c9565b925082820390508181111561330a576133096132ad565b5b92915050565b7f4e487b7100000000000000000000000000000000000000000000000000000000600052603260045260246000fd5b600061334a826129c9565b91507fffffffffffffffffffffffffffffffffffffffffffffffffffffffffffffffff820361337c5761337b6132ad565b5b600182019050919050565b7f416363657373436f6e74726f6c3a2063616e206f6e6c792072656e6f756e636560008201527f20726f6c657320666f722073656c660000000000000000000000000000000000602082015250565b60006133e3602f83612922565b91506133ee82613387565b604082019050919050565b60006020820190508181036000830152613412816133d6565b9050919050565b7f546f6b656e20494420646f6573206e6f74206578697374000000000000000000600082015250565b600061344f601783612922565b915061345a82613419565b602082019050919050565b6000602082019050818103600083015261347e81613442565b9050919050565b7f596f75206d757374206f776e207468697320617373657420746f206368616e6760008201527f65206974277320726573616c6520737461747573000000000000000000000000602082015250565b60006134e1603483612922565b91506134ec82613485565b604082019050919050565b60006020820190508181036000830152613510816134d4565b9050919050565b7f417373657420546f6b656e20494420646f6573206e6f742065786973742e0000600082015250565b600061354d601e83612922565b915061355882613517565b602082019050919050565b6000602082019050818103600083015261357c81613540565b9050919050565b7f526f79616c7479206d757374206265206265747765656e203020616e6420312060008201527f6574686572000000000000000000000000000000000000000000000000000000602082015250565b60006135df602583612922565b91506135ea82613583565b604082019050919050565b6000602082019050818103600083015261360e816135d2565b9050919050565b7f43616e6e6f74206368616e67652073616c6520737461747573206f662074686960008201527f732061737365742e000000000000000000000000000000000000000000000000602082015250565b6000613671602883612922565b915061367c82613615565b604082019050919050565b600060208201905081810360008301526136a081613664565b9050919050565b600081519050919050565b600082825260208201905092915050565b60006136ce826136a7565b6136d881856136b2565b93506136e8818560208601612933565b6136f18161295d565b840191505092915050565b60006080820190506137116000830187612a5e565b61371e6020830186612a5e565b61372b6040830185612b57565b818103606083015261373d81846136c3565b905095945050505050565b60008151905061375781612888565b92915050565b60006020828403121561377357613772612852565b5b600061378184828501613748565b91505092915050565b600081905092915050565b7f416363657373436f6e74726f6c3a206163636f756e7420000000000000000000600082015250565b60006137cb60178361378a565b91506137d682613795565b601782019050919050565b60006137ec82612917565b6137f6818561378a565b9350613806818560208601612933565b80840191505092915050565b7f206973206d697373696e6720726f6c6520000000000000000000000000000000600082015250565b600061384860118361378a565b915061385382613812565b601182019050919050565b6000613869826137be565b915061387582856137e1565b91506138808261383b565b915061388c82846137e1565b91508190509392505050565b60006138a3826129c9565b91506138ae836129c9565b92508282026138bc816129c9565b915082820484148315176138d3576138d26132ad565b5b5092915050565b60006138e5826129c9565b91506138f0836129c9565b9250828201905080821115613908576139076132ad565b5b92915050565b6000613919826129c9565b91506000820361392c5761392b6132ad565b5b600182039050919050565b7f537472696e67733a20686578206c656e67746820696e73756666696369656e74600082015250565b600061396d602083612922565b915061397882613937565b602082019050919050565b6000602082019050818103600083015261399c81613960565b905091905056fea2646970667358221220e47551ac093145b521946ae5722aa4c142c64d964a56c16e82a260dd2958e9a464736f6c63430008110033",
  "linkReferences": {},
  "deployedLinkReferences": {}
}