{
  "_format": "hh-sol-artifact-1",
  "contractName": "AssetMarket",
  "sourceName": "contracts/AssetMarket.sol",
  "abi": [
    {
      "anonymous": false,
      "inputs": [
        {
          "indexed": true,
          "internalType": "address",
          "name": "previousOwner",
          "type": "address"
        },
        {
          "indexed": true,
          "internalType": "address",
          "name": "newOwner",
          "type": "address"
        }
      ],
      "name": "OwnershipTransferred",
      "type": "event"
    },
    {
      "anonymous": false,
      "inputs": [
        {
          "indexed": false,
          "internalType": "address",
          "name": "from",
          "type": "address"
        },
        {
          "indexed": false,
          "internalType": "address",
          "name": "to",
          "type": "address"
        },
        {
          "indexed": false,
          "internalType": "uint256",
          "name": "tokenId",
          "type": "uint256"
        },
        {
          "indexed": false,
          "internalType": "uint256",
          "name": "price",
          "type": "uint256"
        }
      ],
      "name": "Purchase",
      "type": "event"
    },
    {
      "inputs": [
        {
          "internalType": "address",
          "name": "_agreement",
          "type": "address"
        },
        {
          "internalType": "bytes32",
          "name": "_hash",
          "type": "bytes32"
        }
      ],
      "name": "getAssetSaleRecord",
      "outputs": [
        {
          "internalType": "address",
          "name": "",
          "type": "address"
        },
        {
          "internalType": "uint256",
          "name": "",
          "type": "uint256"
        }
      ],
      "stateMutability": "view",
      "type": "function"
    },
    {
      "inputs": [],
      "name": "owner",
      "outputs": [
        {
          "internalType": "address",
          "name": "",
          "type": "address"
        }
      ],
      "stateMutability": "view",
      "type": "function"
    },
    {
      "inputs": [
        {
          "internalType": "address",
          "name": "_agreement",
          "type": "address"
        },
        {
          "internalType": "uint256",
          "name": "_tokenId",
          "type": "uint256"
        }
      ],
      "name": "purchase",
      "outputs": [],
      "stateMutability": "payable",
      "type": "function"
    },
    {
      "inputs": [],
      "name": "renounceOwnership",
      "outputs": [],
      "stateMutability": "nonpayable",
      "type": "function"
    },
    {
      "inputs": [
        {
          "internalType": "address",
          "name": "newOwner",
          "type": "address"
        }
      ],
      "name": "transferOwnership",
      "outputs": [],
      "stateMutability": "nonpayable",
      "type": "function"
    },
    {
      "inputs": [
        {
          "internalType": "address",
          "name": "_agreement",
          "type": "address"
        },
        {
          "internalType": "uint256",
          "name": "_tokenId",
          "type": "uint256"
        },
        {
          "internalType": "bytes32",
          "name": "_hash",
          "type": "bytes32"
        }
      ],
      "name": "updateHash",
      "outputs": [],
      "stateMutability": "nonpayable",
      "type": "function"
    },
    {
      "inputs": [
        {
          "internalType": "uint256",
          "name": "_newRoyalty",
          "type": "uint256"
        }
      ],
      "name": "updateMarketRoyalty",
      "outputs": [],
      "stateMutability": "nonpayable",
      "type": "function"
    },
    {
      "inputs": [
        {
          "internalType": "address",
          "name": "_agreement",
          "type": "address"
        },
        {
          "internalType": "uint256",
          "name": "_tokenId",
          "type": "uint256"
        },
        {
          "internalType": "uint256",
          "name": "_price",
          "type": "uint256"
        }
      ],
      "name": "updatePrice",
      "outputs": [],
      "stateMutability": "nonpayable",
      "type": "function"
    },
    {
      "inputs": [
        {
          "internalType": "address",
          "name": "_agreement",
          "type": "address"
        },
        {
          "internalType": "uint256",
          "name": "_tokenId",
          "type": "uint256"
        },
        {
          "internalType": "bool",
          "name": "_status",
          "type": "bool"
        }
      ],
      "name": "updateSaleStatus",
      "outputs": [],
      "stateMutability": "nonpayable",
      "type": "function"
    },
    {
      "inputs": [
        {
          "internalType": "address",
          "name": "_to",
          "type": "address"
        }
      ],
      "name": "withdrawRoyalty",
      "outputs": [],
      "stateMutability": "nonpayable",
      "type": "function"
    }
  ],
  "bytecode": "0x608060405260008060146101000a81548160ff021916908315150217905550600060015534801561002f57600080fd5b5061004c61004161005160201b60201c565b61005960201b60201c565b61011d565b600033905090565b60008060009054906101000a900473ffffffffffffffffffffffffffffffffffffffff169050816000806101000a81548173ffffffffffffffffffffffffffffffffffffffff021916908373ffffffffffffffffffffffffffffffffffffffff1602179055508173ffffffffffffffffffffffffffffffffffffffff168173ffffffffffffffffffffffffffffffffffffffff167f8be0079c531659141344cd1fd0a4f28419497f9722a3daafe3b4186f6b6457e060405160405180910390a35050565b611c068061012c6000396000f3fe6080604052600436106100915760003560e01c8063a4ef4f7e11610059578063a4ef4f7e14610146578063bcc8e9981461016f578063e0f0832b14610198578063e57d6fb7146101d6578063f2fde38b146101ff57610091565b8063482c5c3c14610096578063585f80d9146100bf578063715018a6146100e85780638da5cb5b146100ff5780638de932221461012a575b600080fd5b3480156100a257600080fd5b506100bd60048036038101906100b89190611172565b610228565b005b3480156100cb57600080fd5b506100e660048036038101906100e191906111fd565b61032d565b005b3480156100f457600080fd5b506100fd610511565b005b34801561010b57600080fd5b50610114610525565b604051610121919061125f565b60405180910390f35b610144600480360381019061013f919061127a565b61054e565b005b34801561015257600080fd5b5061016d600480360381019061016891906112ba565b6109d8565b005b34801561017b57600080fd5b50610196600480360381019061019191906112e7565b610a2a565b005b3480156101a457600080fd5b506101bf60048036038101906101ba9190611314565b610a94565b6040516101cd929190611363565b60405180910390f35b3480156101e257600080fd5b506101fd60048036038101906101f8919061138c565b610b21565b005b34801561020b57600080fd5b50610226600480360381019061022191906112ba565b610d05565b005b600060149054906101000a900460ff1615610278576040517f08c379a000000000000000000000000000000000000000000000000000000000815260040161026f9061143c565b60405180910390fd5b6001600060146101000a81548160ff02191690831515021790555061029b610d88565b60008390508073ffffffffffffffffffffffffffffffffffffffff1663b1f52e8084846040518363ffffffff1660e01b81526004016102db92919061146b565b600060405180830381600087803b1580156102f557600080fd5b505af1158015610309573d6000803e3d6000fd5b505050505060008060146101000a81548160ff021916908315150217905550505050565b600060149054906101000a900460ff161561037d576040517f08c379a00000000000000000000000000000000000000000000000000000000081526004016103749061143c565b60405180910390fd5b6001600060146101000a81548160ff02191690831515021790555060008390508073ffffffffffffffffffffffffffffffffffffffff16636352211e846040518263ffffffff1660e01b81526004016103d69190611494565b602060405180830381865afa1580156103f3573d6000803e3d6000fd5b505050506040513d601f19601f8201168201806040525081019061041791906114c4565b73ffffffffffffffffffffffffffffffffffffffff163373ffffffffffffffffffffffffffffffffffffffff1614610484576040517f08c379a000000000000000000000000000000000000000000000000000000000815260040161047b90611563565b60405180910390fd5b8073ffffffffffffffffffffffffffffffffffffffff1663bf0c8c1684846040518363ffffffff1660e01b81526004016104bf929190611592565b600060405180830381600087803b1580156104d957600080fd5b505af11580156104ed573d6000803e3d6000fd5b505050505060008060146101000a81548160ff021916908315150217905550505050565b610519610d88565b6105236000610e06565b565b60008060009054906101000a900473ffffffffffffffffffffffffffffffffffffffff16905090565b600060149054906101000a900460ff161561059e576040517f08c379a00000000000000000000000000000000000000000000000000000000081526004016105959061143c565b60405180910390fd5b6001600060146101000a81548160ff021916908315150217905550600082905060008173ffffffffffffffffffffffffffffffffffffffff1663b9186d7d846040518263ffffffff1660e01b81526004016105f99190611494565b602060405180830381865afa158015610616573d6000803e3d6000fd5b505050506040513d601f19601f8201168201806040525081019061063a91906115d0565b90508034101561067f576040517f08c379a000000000000000000000000000000000000000000000000000000000815260040161067690611649565b60405180910390fd5b8173ffffffffffffffffffffffffffffffffffffffff16638546d002846040518263ffffffff1660e01b81526004016106b89190611494565b602060405180830381865afa1580156106d5573d6000803e3d6000fd5b505050506040513d601f19601f820116820180604052508101906106f9919061167e565b610738576040517f08c379a000000000000000000000000000000000000000000000000000000000815260040161072f906116f7565b60405180910390fd5b60008273ffffffffffffffffffffffffffffffffffffffff16636352211e856040518263ffffffff1660e01b81526004016107739190611494565b602060405180830381865afa158015610790573d6000803e3d6000fd5b505050506040513d601f19601f820116820180604052508101906107b491906114c4565b90508273ffffffffffffffffffffffffffffffffffffffff166323b872dd8233876040518463ffffffff1660e01b81526004016107f393929190611717565b600060405180830381600087803b15801561080d57600080fd5b505af1158015610821573d6000803e3d6000fd5b505050508273ffffffffffffffffffffffffffffffffffffffff1663bf0c8c168560006040518363ffffffff1660e01b8152600401610861929190611592565b600060405180830381600087803b15801561087b57600080fd5b505af115801561088f573d6000803e3d6000fd5b5050505061097a8373ffffffffffffffffffffffffffffffffffffffff1663893d20e86040518163ffffffff1660e01b8152600401602060405180830381865afa1580156108e1573d6000803e3d6000fd5b505050506040513d601f19601f8201168201806040525081019061090591906114c4565b828573ffffffffffffffffffffffffffffffffffffffff1663227096a36040518163ffffffff1660e01b8152600401602060405180830381865afa158015610951573d6000803e3d6000fd5b505050506040513d601f19601f8201168201806040525081019061097591906115d0565b610eca565b7f46661dab58311a6838247afecbee792192b4f27fc8b3e7168c66bc55ec2e404e813386856040516109af949392919061174e565b60405180910390a150505060008060146101000a81548160ff0219169083151502179055505050565b6109e0610d88565b8073ffffffffffffffffffffffffffffffffffffffff166108fc479081150290604051600060405180830381858888f19350505050158015610a26573d6000803e3d6000fd5b5050565b610a32610d88565b80600011158015610a4b5750670de0b6b3a76400008111155b610a8a576040517f08c379a0000000000000000000000000000000000000000000000000000000008152600401610a8190611805565b60405180910390fd5b8060018190555050565b60008060008490508073ffffffffffffffffffffffffffffffffffffffff166316c9cde5856040518263ffffffff1660e01b8152600401610ad59190611825565b6040805180830381865afa158015610af1573d6000803e3d6000fd5b505050506040513d601f19601f82011682018060405250810190610b159190611840565b92509250509250929050565b600060149054906101000a900460ff1615610b71576040517f08c379a0000000000000000000000000000000000000000000000000000000008152600401610b689061143c565b60405180910390fd5b6001600060146101000a81548160ff02191690831515021790555060008390508073ffffffffffffffffffffffffffffffffffffffff16636352211e846040518263ffffffff1660e01b8152600401610bca9190611494565b602060405180830381865afa158015610be7573d6000803e3d6000fd5b505050506040513d601f19601f82011682018060405250810190610c0b91906114c4565b73ffffffffffffffffffffffffffffffffffffffff163373ffffffffffffffffffffffffffffffffffffffff1614610c78576040517f08c379a0000000000000000000000000000000000000000000000000000000008152600401610c6f906118f2565b60405180910390fd5b8073ffffffffffffffffffffffffffffffffffffffff166382367b2d84846040518363ffffffff1660e01b8152600401610cb3929190611912565b600060405180830381600087803b158015610ccd57600080fd5b505af1158015610ce1573d6000803e3d6000fd5b505050505060008060146101000a81548160ff021916908315150217905550505050565b610d0d610d88565b600073ffffffffffffffffffffffffffffffffffffffff168173ffffffffffffffffffffffffffffffffffffffff1603610d7c576040517f08c379a0000000000000000000000000000000000000000000000000000000008152600401610d73906119ad565b60405180910390fd5b610d8581610e06565b50565b610d9061109b565b73ffffffffffffffffffffffffffffffffffffffff16610dae610525565b73ffffffffffffffffffffffffffffffffffffffff1614610e04576040517f08c379a0000000000000000000000000000000000000000000000000000000008152600401610dfb90611a19565b60405180910390fd5b565b60008060009054906101000a900473ffffffffffffffffffffffffffffffffffffffff169050816000806101000a81548173ffffffffffffffffffffffffffffffffffffffff021916908373ffffffffffffffffffffffffffffffffffffffff1602179055508173ffffffffffffffffffffffffffffffffffffffff168173ffffffffffffffffffffffffffffffffffffffff167f8be0079c531659141344cd1fd0a4f28419497f9722a3daafe3b4186f6b6457e060405160405180910390a35050565b80600011158015610ee35750670de0b6b3a76400008111155b610f22576040517f08c379a0000000000000000000000000000000000000000000000000000000008152600401610f1990611aab565b60405180910390fd5b6000670de0b6b3a764000060015434610f3b9190611afa565b610f459190611b6b565b905060008134610f559190611b9c565b90508373ffffffffffffffffffffffffffffffffffffffff168573ffffffffffffffffffffffffffffffffffffffff1603610fd6578473ffffffffffffffffffffffffffffffffffffffff166108fc829081150290604051600060405180830381858888f19350505050158015610fd0573d6000803e3d6000fd5b50611094565b6000670de0b6b3a76400008483610fed9190611afa565b610ff79190611b6b565b90508573ffffffffffffffffffffffffffffffffffffffff166108fc829081150290604051600060405180830381858888f1935050505015801561103f573d6000803e3d6000fd5b508473ffffffffffffffffffffffffffffffffffffffff166108fc82846110669190611b9c565b9081150290604051600060405180830381858888f19350505050158015611091573d6000803e3d6000fd5b50505b5050505050565b600033905090565b600080fd5b600073ffffffffffffffffffffffffffffffffffffffff82169050919050565b60006110d3826110a8565b9050919050565b6110e3816110c8565b81146110ee57600080fd5b50565b600081359050611100816110da565b92915050565b6000819050919050565b61111981611106565b811461112457600080fd5b50565b60008135905061113681611110565b92915050565b6000819050919050565b61114f8161113c565b811461115a57600080fd5b50565b60008135905061116c81611146565b92915050565b60008060006060848603121561118b5761118a6110a3565b5b6000611199868287016110f1565b93505060206111aa86828701611127565b92505060406111bb8682870161115d565b9150509250925092565b60008115159050919050565b6111da816111c5565b81146111e557600080fd5b50565b6000813590506111f7816111d1565b92915050565b600080600060608486031215611216576112156110a3565b5b6000611224868287016110f1565b935050602061123586828701611127565b9250506040611246868287016111e8565b9150509250925092565b611259816110c8565b82525050565b60006020820190506112746000830184611250565b92915050565b60008060408385031215611291576112906110a3565b5b600061129f858286016110f1565b92505060206112b085828601611127565b9150509250929050565b6000602082840312156112d0576112cf6110a3565b5b60006112de848285016110f1565b91505092915050565b6000602082840312156112fd576112fc6110a3565b5b600061130b84828501611127565b91505092915050565b6000806040838503121561132b5761132a6110a3565b5b6000611339858286016110f1565b925050602061134a8582860161115d565b9150509250929050565b61135d81611106565b82525050565b60006040820190506113786000830185611250565b6113856020830184611354565b9392505050565b6000806000606084860312156113a5576113a46110a3565b5b60006113b3868287016110f1565b93505060206113c486828701611127565b92505060406113d586828701611127565b9150509250925092565b600082825260208201905092915050565b7f52652d656e7472616e6379206e6f7420616c6c6f776564000000000000000000600082015250565b60006114266017836113df565b9150611431826113f0565b602082019050919050565b6000602082019050818103600083015261145581611419565b9050919050565b6114658161113c565b82525050565b60006040820190506114806000830185611354565b61148d602083018461145c565b9392505050565b60006020820190506114a96000830184611354565b92915050565b6000815190506114be816110da565b92915050565b6000602082840312156114da576114d96110a3565b5b60006114e8848285016114af565b91505092915050565b7f4f6e6c79204173736574204f776e65722063616e206d6f646966792073616c6560008201527f2073746174757300000000000000000000000000000000000000000000000000602082015250565b600061154d6027836113df565b9150611558826114f1565b604082019050919050565b6000602082019050818103600083015261157c81611540565b9050919050565b61158c816111c5565b82525050565b60006040820190506115a76000830185611354565b6115b46020830184611583565b9392505050565b6000815190506115ca81611110565b92915050565b6000602082840312156115e6576115e56110a3565b5b60006115f4848285016115bb565b91505092915050565b7f4e6f7420656e6f75676820455448210000000000000000000000000000000000600082015250565b6000611633600f836113df565b915061163e826115fd565b602082019050919050565b6000602082019050818103600083015261166281611626565b9050919050565b600081519050611678816111d1565b92915050565b600060208284031215611694576116936110a3565b5b60006116a284828501611669565b91505092915050565b7f4173736574206973206e6f7420666f722073616c650000000000000000000000600082015250565b60006116e16015836113df565b91506116ec826116ab565b602082019050919050565b60006020820190508181036000830152611710816116d4565b9050919050565b600060608201905061172c6000830186611250565b6117396020830185611250565b6117466040830184611354565b949350505050565b60006080820190506117636000830187611250565b6117706020830186611250565b61177d6040830185611354565b61178a6060830184611354565b95945050505050565b7f526f79616c7479204665652070657263656e74616765206d757374206265206260008201527f65747765656e203020616e642031000000000000000000000000000000000000602082015250565b60006117ef602e836113df565b91506117fa82611793565b604082019050919050565b6000602082019050818103600083015261181e816117e2565b9050919050565b600060208201905061183a600083018461145c565b92915050565b60008060408385031215611857576118566110a3565b5b6000611865858286016114af565b9250506020611876858286016115bb565b9150509250929050565b7f4f6e6c79204173736574204f776e65722063616e20736574207072696365206f60008201527f6620617373657400000000000000000000000000000000000000000000000000602082015250565b60006118dc6027836113df565b91506118e782611880565b604082019050919050565b6000602082019050818103600083015261190b816118cf565b9050919050565b60006040820190506119276000830185611354565b6119346020830184611354565b9392505050565b7f4f776e61626c653a206e6577206f776e657220697320746865207a65726f206160008201527f6464726573730000000000000000000000000000000000000000000000000000602082015250565b60006119976026836113df565b91506119a28261193b565b604082019050919050565b600060208201905081810360008301526119c68161198a565b9050919050565b7f4f776e61626c653a2063616c6c6572206973206e6f7420746865206f776e6572600082015250565b6000611a036020836113df565b9150611a0e826119cd565b602082019050919050565b60006020820190508181036000830152611a32816119f6565b9050919050565b7f4f776e657220726f79616c7479206d757374206265206265747765656e20302060008201527f616e6420312065746865722e0000000000000000000000000000000000000000602082015250565b6000611a95602c836113df565b9150611aa082611a39565b604082019050919050565b60006020820190508181036000830152611ac481611a88565b9050919050565b7f4e487b7100000000000000000000000000000000000000000000000000000000600052601160045260246000fd5b6000611b0582611106565b9150611b1083611106565b9250828202611b1e81611106565b91508282048414831517611b3557611b34611acb565b5b5092915050565b7f4e487b7100000000000000000000000000000000000000000000000000000000600052601260045260246000fd5b6000611b7682611106565b9150611b8183611106565b925082611b9157611b90611b3c565b5b828204905092915050565b6000611ba782611106565b9150611bb283611106565b9250828203905081811115611bca57611bc9611acb565b5b9291505056fea26469706673582212208aa7fc93ba0d05ada51896992da783183d698ac3dd1d8bf939eab7636c19cac364736f6c63430008110033",
  "linkReferences": {},
  "deployedLinkReferences": {}
}